:020000040800F2
:100000001809002045860008517F0008537F00082A
:100010005B7F0008637F00086B7F00080000000022
:10002000000000000000000000000000737F0008D6
:10003000757F000800000000777F0008797F0008C6
:10004000857F0008998600089D860008A186000823
:10005000A5860008A9860008937F00089D7F0008F8
:10006000A77F0008B17F0008BB7F0008AD860008AD
:10007000B1860008B5860008B9860008BD8600086C
:10008000C1860008C5860008C9860008CD8600081C
:10009000D1860008D5860008D9860008C57F0008EB
:1000A000DD860008E1860008E5860008E98600088C
:1000B000ED860008EB7F0008F1860008F586000851
:1000C000F9860008FD8600080187000805870008FA
:1000D00009870008198200080D87000811870008A9
:1000E000758200081587000819870008BFF34F8F35
:1000F000DFF8180E006810F4E060DFF8041C084315
:10010000DFF8081E0860BFF34F8F00BFFDE780B522
:10011000DFF8F00B0069DFF8EC1BC968401ADFF864
:10012000E41B8968401A0A21B0FBF1F0DFF8D81B04
:100130008860DFF8D00B0069DFF8C81BC968DFF8FA
:10014000CC2B1278521F4FF47A7303FB02118842B2
:1001500003D20120DFF8B01B887001F001FADFF84C
:10016000640C0078002869D1DFF89C0B407E0028E1
:100170002BD1DFF8940B8078002826D0DFF8880B8D
:10018000007E012821D0642001F05FFFDFF8780BAA
:10019000407E002819D10020DFF86C1B087501F0A3
:1001A000C1F901224FF40071DFF80C0E02F03AF8A9
:1001B0000120DFF8541B087601F0B4F901224FF456
:1001C0008071DFF8040C02F02DF8DFF83C0B007EA4
:1001D000012803D0DFF8F40B02F0B8F8DFF8F00BD9
:1001E0000068DFF8F01B096888420FD2DFF8180BAF
:1001F000007E01280AD1DFF8DC0B00681430DFF83C
:10020000D01B0860DFF8C40B02F0A0F8DFF8BC2BAD
:10021000D2E9000102F071F849F6414188423AD32F
:10022000DFF8E40A007E012835D10120DFF8941BB5
:100230000870DFF8A40B02F089F82CE0DFF8C80A98
:10024000007E002819D00020DFF8BC1A087601F0E3
:1002500069F900224FF48071DFF86C0B01F0E2FFC6
:100260000120DFF8A41A087501F05CF900224FF4B0
:100270000071DFF8440D01F0D5FFDFF85C2BD2E907
:10028000000102F03AF8DFF8881C884203D300200E
:10029000DFF8301B0870DFF8700A407E012804D0B8
:1002A000DFF8640A807800281ED1DFF85C0A007E3F
:1002B000002819D00020DFF8501A087601F032F932
:1002C00000224FF48071DFF8000B01F0ABFF01203A
:1002D000DFF8341A087501F025F900224FF4007197
:1002E000DFF8D40C01F09EFF01BD00B583B0684675
:1002F00001F0FDFFDFF8100A0078002805D1002288
:100300000421DFF8100E01F08DFFDFF8FC09007802
:10031000022837D19DF80500142190FBF1F201FB72
:100320001200C0B20B2806DB01220421DFF8E40D25
:1003300001F078FF26E0C0B2022190FBF1F0C0B2DC
:10034000022190FBF1F201FB1200012806D10022EC
:100350000421DFF8C00D01F065FF13E0BDF80600D1
:10036000052190FBF1F0642806DA00220421DFF871
:10037000A40D01F057FF05E001220421DFF8940DE0
:1003800001F050FFDFF880090078052815D1BDF88D
:100390000600FA2190FBF1F201FB12007E2806DB39
:1003A00001220421DFF86C0D01F03CFF05E0002282
:1003B0000421DFF8600D01F035FFDFF84C0900780B
:1003C000082805D100220421DFF8480D01F02AFF9A
:1003D000DFF834090078012805D100220421DFF874
:1003E000340D01F01FFFDFF820090078062805D141
:1003F00000220421DFF81C0D01F014FFDFF80809CA
:100400000078072805D100220421DFF8080D01F04B
:1004100009FF07BD80B5DFF8F0080078052804D093
:10042000DFF8E408007804286BD1DFF8DC08407CB2
:10043000002817D0DFF8D008C07D012805D10020A2
:10044000DFF8C418C87501F06DF8DFF8282CD2E980
:10045000000101F052FFB0F5FA7F03D90020DFF868
:10046000A8184874DFF8102CD2E9000101F045FF0C
:10047000B0F5FA7F28D9DFF89008C07D012823D194
:10048000DFF8F40B01F062FFDFF88C0C00680A3033
:10049000DFF87018C968884204D20020DFF87C1C9D
:1004A00008700BE0DFF8740C0078FF2806D0DFF846
:1004B0006C0C0078401CDFF8641C0870DFF84408FE
:1004C000C068DFF8541C0860DFF8540C0078DFF8CF
:1004D0004C1C0978884214D2DFF82C08C07D012812
:1004E00005D10020DFF82018C87501F01BF80020A6
:1004F000DFF8281C0870DFF81408007880B201F0DB
:10050000BBF801BD70B5DFF8702CD2E9000101F035
:10051000F4FEFB28C0F0A880DFF85C0C01F016FFA9
:10052000DFF8E4070078002804D1DFF8DC078068F2
:1005300002F0F7F8DFF8D0070078022804D1DFF8DE
:10054000C807806802F07BF9DFF8BC070078032851
:1005500023D1DFF8740C4668300002F0EFFB02F0A4
:1005600001FC0022DFF8643C02F024FC04000D00D2
:10057000DFF85C0C006802F0F5FB02000B002000C5
:10058000290002F0E9FC02F013FE010089B26420A8
:10059000B6FBF0F080B202F0D5F9DFF86C07007816
:1005A00004283ED1DFF86007C07D002801D1012674
:1005B00000E00026DFF8100C806802F0D3FB002278
:1005C000DFF8083C02F0F6FB04000D00DFF8000C39
:1005D000006802F0C7FB02000B002000290002F0B7
:1005E000BBFC02F0FBFDDFF8201748603300DBB2F4
:1005F0001C00DFF8D40B806802F006FE6421B0FB1B
:10060000F1F22300DFF8FC06C068DFF8141C09686B
:10061000401A6421B0FBF1F1DFF8EC06406802F00B
:100620002DFADFF8E4060078052801D102F067F81A
:10063000DFF8D4060078082801D101F019FFDFF8AF
:10064000C8060078012801D101F012FFDFF8B806D2
:100650000078062801D101F00BFFDFF8AC06007826
:10066000072801D101F004FF70BD00B583B00A2056
:1006700001F07FFB684601F03AFEDFF88C06007857
:10068000042822D00A2001F066FB002001F05CFB68
:100690009DF80500022190FBF1F201FB12000028F9
:1006A0000AD0BDF80600642190FBF1F0D0F10A00F9
:1006B000C0B201F057FB48E0BDF80600642190FB92
:1006C000F1F0C0B201F04EFB3FE09DF805000221C1
:1006D00090FBF1F201FB1200002818D0BDF80600D3
:1006E000642190FBF1F0C0B201F03CFBBDF80600C4
:1006F000642190FBF1F0C0B201F02DFBBDF80600C3
:10070000642190FBF1F0C0B201F01EFB1DE0BDF8CA
:100710000600642190FBF1F0D0F10A00C0B201F0B4
:1007200021FBBDF80600642190FBF1F0D0F10A0036
:10073000C0B201F010FBBDF80600642190FBF1F09F
:10074000D0F10A00C0B201F0FFFA07BD2DE97043F5
:100750006421DFF8F80C02F003FE0121DFF8EC0C55
:1007600002F0A8FE04000221DFF8E00C02F0A2FE75
:100770000321DFF8D80C02F09DFE06000421DFF80B
:10078000CC0C02F097FE0500ADB2280002F0D6FABC
:1007900002F0E8FA02000B000020DFF8881A02F0ED
:1007A000DBFB80468946A4B2200002F0C7FA02F0C3
:1007B000D9FA42464B4602F0FDFADFF86C2ADFF820
:1007C0006C3A02F0F7FA0022DFF8643A02F0F2FA2B
:1007D00002F0EEFCDFF830158881ADB2280002F09F
:1007E000ADFA02F0BFFA02000B000020DFF8341A65
:1007F00002F0B2FB04000D00B6B2300002F09EFA27
:1008000002F0B0FA22002B0002F0D4FA02000B0032
:10081000DFF83C0CDFF83C1C02F090FFDFF8382CCE
:10082000DFF8383C02F098FB0022DFF8343C03F09C
:1008300045F802F0BDFCDFF8D014C881DFF80C0CDD
:1008400002F064FDDFF8040C02F0F0FCBDE87083F8
:1008500080B500F06DFE00F065FE01F009FEDFF8E6
:10086000A8040078002812D100224FF48071DFF82C
:10087000F40B01F0D7FC00224FF40071DFF8E40B19
:1008800001F0D0FC0020DFF88014087411E0012290
:100890004FF48071DFF8CC0B01F0C4FC01224FF45F
:1008A0000071DFF8C00B01F0BDFC0120DFF8581427
:1008B0000874DFF85404007802281BD101224FF499
:1008C0008071DFF8A00B01F0ADFC01224FF4007144
:1008D000DFF8900B01F0A6FC0120DFF82C1408745F
:1008E0000020DFF82414C87500F01CFE0220DFF899
:1008F00018140870DFF810040078042810D1DFF80D
:1009000008044078032805D1DFF8F803C068DFF851
:10091000101908600120DFF8F013C87500F002FE1E
:10092000DFF8E403007805280ED1DFF8480701F06E
:100930000DFDDFF8D403C07D012805D10020DFF8CC
:10094000C813C87500F0EEFDDFF8BC030078DFF8CF
:10095000B813487001BD80B5FFF7C8FB01BDC0B238
:10096000002808D002280CD008D304280FD00BD3BD
:1009700005280FD011E040F6B83010E040F6B8304E
:100980000DE041F288300AE043F6982007E047F294
:10099000305004E04EF6602001E04EF660207047D3
:1009A000F8B502F0FFFF00F045FC01220221102003
:1009B00001F0DEFC00F0ACF900F03CFC00F00EFAB7
:1009C00000F0A8FA00F0E5FA00F014FB00F056FB86
:1009D00000F0A8FB00F0D2FB00F0FCFB00F0EEFA08
:1009E000DFF8840A03F01EF803F00FFD0220C64969
:1009F00008700720C4494870FFF72AFF0122202110
:100A0000DFF8B40501F00EFCDFF8400A02F00EFC3E
:100A1000322000F007FE6BE00120BB49C87500F0F2
:100A200081FDDFF8480A0078002803D0DFF8400A8B
:100A300001F08CFC00F066FD002822D0B24800785E
:100A400005281ED1DFF8240A0078FFF788FF04008C
:100A5000DFF81C2AD2E9000101F04FFC6108814255
:100A60000DD2DFF81026D2E9000101F046FCB0F506
:100A70007A7F04D90420A4490870FFF7E9FE00F04A
:100A80002DFDA1480078052810D1DFF8E009007895
:100A9000FFF765FF0400DFF8DC25D2E9000101F073
:100AA0002CFC844202D204209749087000F02AFDF1
:100AB000002805D094480078022801D100F00EFDEE
:100AC00000F024FD002803D000F032FD00F00BFD03
:100AD00000F020FD002803D000F02AFD00F008FD02
:100AE00000F01CFD002803D000F022FD00F005FD01
:100AF000FFF72CFEFFF70BFB03F062F9FFF702FD97
:100B0000FFF788FCFFF7F1FBFFF7AFFDDFF86409A3
:100B100003F016FE7C480078042840F087807A486D
:100B2000407C002823D0052077490870DFF8402951
:100B3000D2E9000101F0E1FB0400DFF830090078A0
:100B4000FFF70DFF844210D2DFF820090078052856
:100B500007D0DFF818090078401CDFF8101908707A
:100B600003E00020DFF804190870FFF771FEDFF8DA
:100B70005806406803F0F4FD06000F006148C068A5
:100B800003F0EEFD04000D00DFF89406006803F0AA
:100B9000E7FD02000B002000290002F0CFFD00223B
:100BA000DFF88C3602F0D8F904000D00DFF82006DB
:100BB000006802F0D7F822002B0002F0FBF80200D8
:100BC0000B003000390002F0B9FD03F0D7FDDFF86B
:100BD000F8158860DFF8F005806803F017FE01283B
:100BE00024DA4848C0684749C96810F114029142A4
:100BF000F9D3022044490870FFF72AFEDFF8C80540
:100C00000068DFF8C41549680C18DFF8BC05806877
:100C100002F0FAFA201ADFF8B01508600020DFF8B9
:100C2000A81548600020DFF8A0158860DFF8980557
:100C3000406800280CD034480078022808D10320EE
:100C400031490870FFF704FE00F072FC00F046FC2A
:100C50002D488068DFF820180978642251438842C3
:100C600008D229480078022804D1002026490870BB
:100C7000FFF7EEFD24488068DFF8FC17097864224E
:100C80005143884208D320480078002804D102202C
:100C90001D490870FFF7DCFD00F034FC002814D07B
:100CA00019480078032810D1042017490870DFF88C
:100CB000C00701F04BFB0020DFF8B0170870FFF70A
:100CC000C7FD00F035FC00F009FC00F01BFC00281B
:100CD0003FF4B0AE0C48007804287FF4ABAE00F0CF
:100CE00027FC00F01FFC00F0F9FB0748C07D01283D
:100CF0007FF492AE00200449C87500F013FC99E619
:100D00000400FA05601000202C10002013010020C0
:100D100000B593B0092009905FF480300A9000205C
:100D20000B9001200D9001200F90022010905FF495
:100D3000803011905FF48010129009A803F088FDB4
:100D4000002805D04FF41571DFF8300700F0C2FB22
:100D50000F20049002200590002006904FF4806040
:100D6000079000200890012104A803F09AFF0028B2
:100D700005D040F26221DFF8040700F0ABFB02204F
:100D800000904FF480400290684604F0CBF80028B1
:100D900005D040F26921DFF8E40600F09BFB04F087
:100DA00073F84FF47A71B0FBF1F004F045FA0420C7
:100DB00004F046FA002200215FF0FF3004F026FA2A
:100DC00013B000BDCA11002000080140F41000203B
:100DD0008011002088110020EC10002000B58BB09D
:100DE000DFF89C06DFF8641608604FF48070DFF8C7
:100DF0005C1688600020DFF85416C8600020DFF819
:100E00004C1648615FF46020DFF84016C86100208E
:100E1000DFF8381648600120DFF830160861DFF887
:100E20002C0604F033FA002805D040F28A21DFF8BE
:100E30004C0600F04FFB1020089001200990002084
:100E40000A9008A9DFF8040604F0BBFA002805D0D0
:100E50004FF42571DFF8240600F03CFB04200090DD
:100E60000120019004200490002002904FF4E04003
:100E7000079000200690002005900020039069460E
:100E8000DFF8C80502F02BFB002805D040F2A321B3
:100E9000DFF8E80500F01EFB05200090022001901D
:100EA0006946DFF8A80502F01AFB002805D04FF4C8
:100EB0002B71DFF8C80500F00DFB10200090032017
:100EC0000190012002906946DFF8800502F007FBDF
:100ED000002805D040F2B621DFF8A00500F0FAFAAC
:100EE0001120009004200190002002906946DFF854
:100EF0005C0502F0F4FA002805D04FF43071DFF8F9
:100F00007C0500F0E7FA0BB000BD00000CED00E03E
:100F1000E193040080B5DFF86C05DFF86C1508601C
:100F20001020DFF8641548600020DFF85C15886049
:100F30000020DFF85415C8600020DFF84C15086168
:100F40000020DFF8441548610020DFF83C15886177
:100F50000020DFF83415C8610020DFF82C15086286
:100F60000020DFF8241548620020DFF81C15886295
:100F70000020DFF81415C862DFF80C0504F02CFB24
:100F8000002805D040F2D721DFF8F00400F0A2FAE3
:100F900001BD80B5DFF8F404DFF8F4140860DFF871
:100FA000F00404F0C3FB002805D040F2E321DFF891
:100FB000CC0400F08FFA01BD0010014080B5DFF8CD
:100FC000D404DFF8B01408600520DFF8A8144860E6
:100FD00040F2DC50DFF89C148860DFF8980403F0DE
:100FE00087FB002805D040F2F121DFF8900400F0E3
:100FF00071FA01BD80B5DFF8A004DFF8A014086025
:101000000020DFF8981448600020DFF89014886012
:101010000020DFF88814C8600020DFF88014086121
:101020000020DFF8781448614FF40070DFF86C148A
:1010300088610020DFF86414C8610020DFF85C14C8
:1010400008620020DFF8541448620020DFF84C14D6
:1010500088620A20DFF84414C862DFF8400404F014
:1010600077FB002805D040F20931DFF8100400F0CA
:1010700031FA01BDE4100020FC10002000B587B05B
:10108000DFF81C04DFF8E01308602F20DFF8D81326
:1010900048600020DFF8D013886040F2E730DFF8C6
:1010A000C813C8604FF40070DFF8BC13086100205B
:1010B000DFF8B4138861DFF8B00302F097FC002872
:1010C00005D040F21D31DFF8B40300F003FA4FF40D
:1010D0008050029002A9DFF8900302F06CFD002816
:1010E00005D040F22331DFF8940300F0F3F900203B
:1010F0000090002001906946DFF86C0304F06EFB5D
:10110000002805D040F22A31DFF8700300F0E2F940
:1011100007B000BD000C014084110020CB1100205D
:101120001101002080B5DFF87C03DFF87C13086034
:101130004FF41650DFF8701348600020DFF8681392
:1011400088600020D849C8600020D74908610C2079
:10115000D54948610020D44988610020D249C8613E
:10116000D14804F069FB002804D040F23D31C34867
:1011700000F0B0F901BD00000411002080B5CB489B
:10118000CB4908604FF41650C94948600020C8494F
:1011900088600020C649C8600020C54908610C204D
:1011A000C34948610020C24988610020C049C86124
:1011B000BF4804F041FB002804D04FF45471AF48FD
:1011C00000F088F901BD0000B010002000002440AC
:1011D0000800002080B5B748B74908604FF41650A2
:1011E000B54948600020B44988600020B249C86011
:1011F0000020B14908610C20AF4948610020AE4988
:1012000088610020AC49C861AB4804F015FB002898
:1012100004D040F26331994800F05CF901BD000050
:101220007C1100200000F83F0AD7A3703D0A094056
:1012300000408F4000B585B0A048006850F04000E5
:101240009E4908609D48006810F04000009000989A
:101250009A48006850F01000984908609748006864
:1012600010F01000009000989448006850F00400BE
:10127000924908609148006810F0040000900098BE
:101280008E48006850F008008C4908608B48006860
:1012900010F00800009000988848006850F0200086
:1012A000864908608548006810F02000009000988A
:1012B000002240F2FF31824800F0B4FF002248F2E1
:1012C000C311804800F0AEFF002241F207017E48C2
:1012D00000F0A8FF00224FF680717C4800F0A2FFCA
:1012E00000224FF47F415F4800F09CFF3C200190BA
:1012F000774802900020039001A9744800F0AEFEE8
:1013000043200190724802900120039001A96F4888
:1013100000F0A4FE4FF47C4001906D480290012043
:10132000039001A9664800F099FE40F2FF30019059
:10133000012002900220049001A9614800F08EFE75
:1013400048F2C3100190012002900220049001A9EC
:101350005C4800F083FE41F20700019001200290FA
:101360000220049001A9584800F078FE4FF68070E2
:101370000190012002900220049001A9534800F03E
:101380006DFE4FF47F4001900120029002200490F6
:1013900001A9344800F062FEFF2001900020029075
:1013A0000120039001A92F4800F058FE78200190F9
:1013B000002002900120039001A9434800F04EFE56
:1013C0004FF460700190424802900120039001A9FF
:1013D0003D4800F043FE00220221062003F016FFE4
:1013E000062003F024FF00220221072003F00EFF55
:1013F000072003F01CFF00220221082003F006FF53
:10140000082003F014FF00220221092003F0FEFE51
:10141000092003F00CFF002202210A2003F0F6FE4F
:101420000A2003F004FF00220221172003F0EEFE41
:10143000172003F0FCFE00220221282003F0E6FE24
:10144000282003F0F4FE05B000BD0000FC0F0020D2
:10145000E17A14AE47E1F63F22FDF675E09C713F5C
:101460000000394000140140FC0E00201001002053
:10147000DC100020A410002012010020D8840008F5
:101480000024014000640040B80E002000300240FB
:10149000D41000200030004000380040180E00201A
:1014A00000040040003801403C0F00200044004090
:1014B0007C0F002000480040BC0F002018100240A4
:1014C0000010014000080140000C014000180140DC
:1014D0000000111080B5FEF709FEFEE70020DFF8DE
:1014E000581A087070470020DFF8541A08707047C7
:1014F0000020DFF8501A087070470020DFF8481A03
:1015000008707047DFF8300A00787047DFF8300A5B
:1015100000787047DFF82C0A00787047DFF8280A57
:101520000078704780B5DFF8240A00F00FFF01BD96
:1015300080B5DFF81C0A00F009FF01BD80B540212D
:10154000DFF8100A00F065FE002804D00020DFF864
:10155000081AC87603E00120DFF8FC19C87601BD3F
:1015600080B51021DFF8EC0900F053FE002804D00C
:101570000020DFF8E419487603E00120DFF8D819ED
:10158000487601BD80B52021DFF8C80900F041FE92
:10159000002804D00120DFF8C019887603E000207D
:1015A000DFF8B419887601BD80B50821DFF8A409F9
:1015B00000F02FFE002804D00120DFF89C190877E6
:1015C00003E00020DFF89019087701BD38B5DFF897
:1015D0008C090068401CDFF884190860DFF8800976
:1015E0000068401CDFF878190860DFF874090068AB
:1015F00003F0B6F80022DFF86C3901F0DBFB0400E1
:101600000D00DFF86409006803F0AAF802000B007F
:101610002000290001F0A0FC01F0E0FDDFF84C19EA
:10162000086131BD38B5DFF8401909680A22B1FBFD
:10163000F2F180B200FB01F0DFF824190860DFF856
:101640002009006803F08CF80022DFF8183901F057
:10165000B1FB04000D00DFF81009006803F080F80A
:1016600002000B002000290001F076FC01F0B6FD1D
:10167000DFF8F818086131BD38B5DFF8EC180968F3
:101680000A22B1FBF2F180B200FB01F0DFF8D018C2
:101690000968884207D2DFF8C8180968081ADFF815
:1016A000C018086003E00020DFF8B4180860DFF815
:1016B000B008006803F054F80022DFF8A83801F001
:1016C00079FB04000D00DFF8A008006803F048F87B
:1016D00002000B002000290001F03EFC01F07EFD1D
:1016E000DFF88818086131BD704780B5DFF87008F1
:1016F000C068401CDFF86818C860DFF87428D2E9B9
:10170000000100F0FAFDB0F5FA7F07D2DFF86408B7
:101710000068401CDFF85C18086003E00020DFF878
:1017200054180860DFF84C080068042803D301202F
:10173000DFF824184874DFF8380800F007FE01BD10
:10174000704738B5DFF818088068401CDFF81018BB
:101750008860DFF80C08806803F002F80022DFF8E8
:10176000043801F027FB04000D00DFF8FC070068D7
:1017700002F0F6FF02000B002000290001F0ECFB54
:1017800001F02CFDDFF8E4178860DFF8EC27D2E9E0
:10179000000100F0B2FDB0F57A7F07D2DFF8DC0778
:1017A0000068401CDFF8D417086003E00020DFF871
:1017B000CC170860DFF8C00700F0C8FDDFF8BC07F1
:1017C0000068042852D30020DFF88C178870DFF8F7
:1017D0009C070169DFF89407C268DFF88407006896
:1017E000DFF884371B680A24B3FBF4F3DFF8904773
:1017F0002478891ADFF874279268891A4FF47A726C
:10180000B1FBF2F1611A01FB0300DFF85417086025
:10181000DFF84C07006802F0A3FF0022DFF844372E
:1018200001F0C8FA04000D00DFF83C07006802F080
:1018300097FF02000B002000290001F08DFB01F052
:10184000CDFCDFF828170861DFF820070069DFF812
:101850001C17C968401ADFF814178968401A4FF43A
:101860007A71B0FBF1F0DFF8F016886031BD38B561
:10187000DFF8EC064068401CDFF8E4164860DFF84B
:10188000E006406802F06CFF0022DFF8D83601F075
:1018900091FA04000D00DFF8EC06006802F060FF2A
:1018A00002000B002000290001F056FB01F096FC1D
:1018B000DFF8B816C86031BD10B5DFF8CC06007887
:1018C000411CDFF8C4261170C0B20528C0F2228185
:1018D0000020DFF8B4160870DFF8B0060478601C4A
:1018E000DFF8A81608700221DFF8680600F091FC06
:1018F000DFF89C16E4B20855DFF8900600780A2855
:1019000003DB0020DFF884160870DFF88806007813
:10191000002804D1DFF880060078012846D1DFF8DE
:1019200070060078DFF8681649780818DFF8601646
:1019300089780818DFF85816C9780818DFF85016A3
:1019400009790818DFF8481649790818DFF84016B1
:1019500089790818DFF83816C9790818DFF83016C1
:10196000097A0818DFF82816497A081800281DD1C6
:101970000020DFF824160870DFF818060078002829
:1019800010D1DFF8E8054068401CDFF8E01548603A
:10199000DFF8CC054068DFF8041608600120DFF8A6
:1019A000001608700020DFF8EC150870DFF8E40579
:1019B0000078002804D1DFF8E0050078002846D13F
:1019C000DFF8CC050078DFF8C81549780818DFF88B
:1019D000C01589780818DFF8B815C9780818DFF835
:1019E000B01509790818DFF8A81549790818DFF843
:1019F000A01589790818DFF89815C9790818DFF853
:101A00009015097A0818DFF88815497A08180A2805
:101A10001DD10120DFF880150870DFF87805007807
:101A2000002810D1DFF844054068401CDFF83C1561
:101A30004860DFF82C054068DFF868150860012071
:101A4000DFF85C1508700020DFF848150870DFF833
:101A50005005007800285DD00020DFF8441508709C
:101A6000DFF838050068002854D0DFF83805006832
:101A700000284FD0DFF830050078411CDFF828251A
:101A80001170DFF820150968DFF8102512689142FF
:101A900007D2DFF808150968DFF808251268891AE7
:101AA00006E0DFF800150968DFF8F0241268891AEB
:101AB000DFF8F824C0B242F82010DFF8EC04007818
:101AC000042827DB0020DFF8E0140870DFF8DC04CE
:101AD0000068DFF8D8148968401A04F08BF964288C
:101AE00018DADFF8C8044068DFF8C014C968401A83
:101AF00004F080F964280DDA0020002106E0DFF808
:101B0000AC24C9B252F821201018491CC9B20429CA
:101B1000F5DB400810BD10B5DFF894040078411CD7
:101B2000DFF88C241170C0B20528C0F20C810020AF
:101B3000DFF87C140870DFF87C040478601CDFF8A0
:101B4000741408700421DFF80C0400F062FBDFF865
:101B50006814E4B20855DFF85C0400780A2803DB57
:101B60000020DFF850140870DFF8500400780028D7
:101B700004D1DFF84C040078012846D1DFF838049E
:101B80000078DFF8341449780818DFF82C148978C5
:101B90000818DFF82414C9780818DFF81C1409792C
:101BA0000818DFF8141449790818DFF80C1489793B
:101BB0000818DFF80414C9790818DFF8FC13097A4B
:101BC0000818DFF8F413497A081800281DD10020FE
:101BD000DFF8EC130870DFF8E4030078002810D178
:101BE000DFF888030068401CDFF880130860DFF826
:101BF00070030068DFF8CC1308600120DFF8C81319
:101C000008700020DFF8B4130870DFF8B003007824
:101C1000002804D1DFF8A8030078002843D1DFF8BA
:101C200098030078DFF8901349780818DFF88813D4
:101C300089780818DFF88013C9780818DFF8781356
:101C400009790818DFF8701349790818DFF8681364
:101C500089790818DFF86013C9790818DFF8581374
:101C6000097A0818DFF85013497A08180A281AD197
:101C70000120DFF84C130870DFF8400300780028DB
:101C80000DD1BA480068401CB8490860B4480068E3
:101C9000DFF8381308600120DFF82C1308700020EB
:101CA000DFF818130870DFF82003007800284AD006
:101CB0000020C5490870C3480068002843D0C348C5
:101CC000006800283FD0C2480078411CC04A11700B
:101CD000BE490968BB4A1268914205D2B9490968F0
:101CE000BA4A1268891A04E0B8490968B54A126804
:101CF000891AB84AC0B242F82010B54800780428C2
:101D000021DB0020B2490870B2480068B1498968F7
:101D1000401A04F06FF8642815DAAE484068AD49FF
:101D2000C968401A04F066F864280CDA0020002123
:101D300005E0A84AC9B252F821201018491CC9B2BE
:101D40000429F6DB400810BDC0B20B2800DB0A20D6
:101D5000A14908707047C0B20B2800DB0A209E49D9
:101D600088707047C0B20B2800DB0A209A4948707F
:101D70007047C0B20B2800DB0A209749C870704733
:101D800010B50400714AD2E9000100F0B6FA332818
:101D900064D3A4B2B4F5807F04D190480088401C7D
:101DA0008E490880A4B2042C06D1FFF760FD8C4850
:101DB0000088401C8A490880A4B2082C06D1FFF78D
:101DC000C0FC88480088401C86490880A4B2102CBA
:101DD00006D1FFF78AFC84480088401C82490880AD
:101DE000A4B2202C06D1FFF7F1FB80480088401CEC
:101DF0007E490880A4B2012C04D17D480088401C93
:101E00007B490880A4B2802C04D17A480088401C09
:101E100078490880A4B2B4F5007F04D176480088E0
:101E2000401C75490880A4B2B4F5806F04D1734892
:101E30000088401C71490880A4B2B4F5006F04D139
:101E40006F480088401C6E490880A4B2B4F5805FDA
:101E500004D16C480088401C6A4908803C4AD2E999
:101E6000000100F04AFA332861D3A4B2022C1BD13E
:101E7000654AD2E9000100F040FAB0F5FA7F13D9C3
:101E8000052000F0E2F80221604800F0C2F90028C5
:101E90004FD05D4800F05AFA0120274908705C488D
:101EA0000078401C5A490870A4B2B4F5005F0CD108
:101EB000584AD2E9000100F020FAC92805D3554854
:101EC00000F044FA01201D490870A4B2B4F5804F17
:101ED0000CD1514AD2E9000100F00FFAC92805D30C
:101EE0004D4800F033FA012017490870A4B2B4F548
:101EF000004F0CD1494AD2E9000100F0FEF9C9288F
:101F000005D3464800F022FA01200D490870A4B21A
:101F1000402C0CD1424AD2E9000100F0EEF9C92868
:101F200005D33F4800F012FA0120064908703D48E9
:101F3000048010BD00000000CE110020CF11002051
:101F4000D0110020D1110020D21100202411002036
:101F50001C110020001401402C10002088110020CA
:101F6000741000200088C340000000206010002092
:101F70002C1100208C110020341100209011002021
:101F80001301002004000020D5110020D3110020EF
:101F9000BC10002014010020D41100209411002056
:101FA000D611002098110020D711002084100020A5
:101FB000DA110020D8110020C810002015010020DF
:101FC000D91100209C110020DB110020A01100205D
:101FD000DC11002094100020A4110020B211002078
:101FE000B4110020B6110020B8110020BA11002051
:101FF000BC110020BE110020C0110020C211002021
:10200000C4110020C61100203C110020001801401E
:10201000DD110020441100204C110020541100203B
:102020005C110020B011002002B44FF00E0101FB42
:1020300000F04FF0240190FBF1F10844C82880F231
:10204000098000BF00BF033804E002B44FF46151BF
:1020500001FB00F00138FDD802BC7047F8B4002540
:102060000024002500220026002307E0DFF8E451C9
:102070002D6835EA0404774D2C605B1C102B80F032
:10208000C680012414FA03F50C682C40AC42F4D14C
:102090004E68002E27D0012E1AD0022E1DD0032EFE
:1020A0002FD0112E16D0122E1AD06B4FBE421AD03E
:1020B0006A4FBE4217D06A4FBE4214D0694FBE422B
:1020C00011D0694FBE420ED0684FBE420BD01AE00D
:1020D000CA6818E0CA68121D15E0CA68083212E022
:1020E000CA680C320FE08A68002A01D1042207E096
:1020F0008A68012A02D10822056101E008224561AF
:1021000001E00022FFE7FF2C01D8050000E0051DDB
:10211000FF2C01D89E0002E0B3F10806B6002F683C
:102120005FF00F0C1CFA06FC37EA0C0712FA06F6F1
:102130003E432E604D68ED009FD54D4D2D6855F006
:1021400001054B4E35604A4D2D6815F0010500958F
:10215000009D484D9E0855F826500F2613F00307A2
:10216000FFB2BF00BE40B543434EB04201D100268E
:102170000FE0424EB04201D101260AE0404EB0428B
:1021800001D1022605E03F4EB04201D1032600E016
:10219000042613F00307FFB2BF00BE403543354E9F
:1021A0009F0846F827504D68ED0305D5364D2D683C
:1021B0002543354E356004E0334D2D68A543324E3E
:1021C00035604D68AD0305D5304D2D6825432F4E44
:1021D000356004E02D4D2D68A5432C4E35604D68CB
:1021E000ED0205D52A4D2D682543294E356004E0C2
:1021F000274D2D68A543264E35604D68AD027FF50D
:1022000035AF144D2D682C43124D2C6035E7F1BCD1
:102210007047806889B2084201D0012000E00020A8
:10222000C0B27047D2B2002A02D089B2016102E086
:1022300089B209040161704780B51649096880B206
:10224000014205D080B21349086080B2FFF798FDC3
:1022500001BD00000C04014000001110000012102C
:102260000000211000002210000031100000321088
:10227000181002400800014000080140000C014015
:10228000001001400014014000040140040401401A
:1022900008040140140401403348C088401C3249FE
:1022A000C8803148C088B0F57A7F07DB00202E490E
:1022B000C8802D484079401C2B4948712A484079F4
:1022C0003C2807DB00202849487127480079401C3A
:1022D00025490871244800793C2807DB0020224961
:1022E000087121480068401C1F49086070471E495A
:1022F000D1E90023C0E90023704703B41A480068FD
:102300001A49194A12794EF660235A4301FB0020FC
:10231000154949794FF47A7202FB01001249C988C4
:1023200008180099114A02FB11009DF804104EF69E
:10233000602202FB11009DF805104FF47A7202FB37
:102340001100BDF80610401A02B07047064909682E
:1023500001600549097901710349497941710249CF
:10236000C988C180704700006411002080EE3600EB
:1023700070B58AB006000C00150000F076F94AF638
:10238000C870FFF751FEDFF85009C470DFF8480944
:1023900006710020DFF8401948710020DFF8381975
:1023A00088710020DFF830194870E4B2022C07DB96
:1023B000DFF82409407850F00800DFF81C19487055
:1023C000032000F0E2F841F28830FFF72DFE0320F1
:1023D00000F0DBF841F28830FFF726FE032000F022
:1023E000D4F841F28830FFF71FFE022000F0CDF84C
:1023F000C820FFF719FEDFF8E008407850F0200011
:10240000C0B200F09EF80420DFF8CC18087000F08D
:1024100086F800F02DF80220DFF8BC188870DFF88D
:10242000B808807850F00400C0B200F08AF841F299
:102430008830FFF7F9FD05A8DFF8A018142203F093
:10244000EDFC05AA0021002000F01BF86846DFF82B
:102450009018142203F0E2FC6A460121002000F0EB
:1024600010F82800FFF7F1FD00F002F80AB070BD87
:1024700080B5012000F065F840F6AC50FFF7D4FDC0
:1024800001BD10B51400C9B2C0B200F0CFF80AE027
:10249000207800F068F8DFF840084079401CDFF849
:1024A00038184871641C2078002837D0DFF82808D5
:1024B0004079DFF824180979884212D30020DFF828
:1024C00018184871DFF810088079401CDFF80818E8
:1024D0008871DFF804088179DFF8FC07407900F0A3
:1024E000A5F820780A280FD1DFF8EC078079401C86
:1024F000DFF8E4178871DFF8E0078179DFF8D807A3
:10250000407900F093F8CDE720780D28C0D1DFF8AE
:10251000C8078179002000F089F8C3E710BD80B5B5
:10252000DFF8B407007850F00400DFF8AC1708704B
:10253000DFF8A407007850F00800C0B200F001F8FE
:1025400001BD10B5040000220221DFF89C07FFF74F
:1025500069FE2000C0B2000900F017F814F00F0067
:1025600000F013F810BD10B5040001220221DFF8BD
:102570007807FFF757FE2000C0B2000900F005F809
:1025800014F00F0000F001F810BD10B50400200792
:1025900006D501220121DFF84C07FFF743FE05E0D5
:1025A00000220121DFF83C07FFF73CFE600706D55B
:1025B00001220221DFF82C07FFF734FE05E000229C
:1025C0000221DFF82007FFF72DFEA00706D5012224
:1025D0000421DFF81007FFF725FE05E000220421A3
:1025E000DFF80007FFF71EFEE00706D501220821ED
:1025F000DFF8F006FFF716FE05E000220821DFF8FD
:10260000E406FFF70FFE01220121DFF8DC06FFF7E9
:1026100009FE3C20FFF708FD00220121DFF8C80673
:10262000FFF700FE3C20FFF7FFFC10BD10B582B0A5
:102630006A46DFF8B8361C6814600A00DFF898367E
:10264000DB78D2B29A4200D30021DFF88C26507199
:10265000DFF8842691716A46C9B2515C081850F0BF
:102660008000C0B2FFF76DFF13BD80B501220821C5
:10267000DFF87006FFF7D6FD00220821DFF86406B8
:10268000FFF7D0FD01220421DFF85806FFF7CAFD4D
:1026900000220421DFF84C06FFF7C4FD01220221CD
:1026A000DFF84006FFF7BEFD00220221DFF8340606
:1026B000FFF7B8FD01220121DFF82806FFF7B2FD80
:1026C00000220121DFF81C06FFF7ACFD01220121E9
:1026D000DFF81406FFF7A6FD00220121DFF8080647
:1026E000FFF7A0FD01220221DFF8FC05FFF79AFDAC
:1026F00000220221DFF8F005FFF794FD01BD80B54F
:10270000DFF8EC2501210020FFF7BBFEDFF8EC0528
:102710000088ADF800006A4601210920FFF7B1FEEC
:1027200001BD10B588B00400D3A200210020FFF73E
:10273000A8FE02A8DFF8BC150A68026002AA002100
:102740000320FFF79EFEDFF8B02500210420FFF7ED
:1027500098FE42F21070844201D342F20F7464205A
:10276000B4FBF0F06421B0FBF1F130318DF80010D2
:102770009DF80010302902D120218DF8001064212D
:10278000B0FBF1F201FB12010A22B1FBF2F1303190
:102790008DF801109DF80110302906D19DF8001028
:1027A000202902D120218DF801100A21B0FBF1F27D
:1027B00001FB120030308DF8020000208DF803007C
:1027C0000DF1010200210920FFF75BFE6420B4FB3C
:1027D000F0F100FB11402C218DF800100A21B0FB14
:1027E000F1F130318DF801100A21B0FBF1F201FB5B
:1027F000120030308DF8020000208DF803006A4688
:1028000000210B20FFF73DFEA7208DF808002E20A9
:102810008DF8090000208DF80A0002AA00210E2080
:10282000FFF72FFE03A8DFF8D814142203F0F6FAFE
:1028300003AA01210020FFF724FE08B010BD10B547
:102840008CB0040002A8DFF8BC14142203F0E6FAEE
:1028500002AA00210020FFF714FEDFF8AC04844236
:1028600001D3DFF8A8446420B4FBF0F06421B0FB8E
:10287000F1F130318DF800109DF80010302902D1AF
:1028800020218DF800106421B0FBF1F201FB120150
:102890000A22B1FBF2F130318DF801109DF80110E0
:1028A000302906D19DF80010202902D120218DF871
:1028B00001100A21B0FBF1F201FB120030308DF85B
:1028C000020000208DF803006A4600210820FFF76F
:1028D000D8FD6420B4FBF0F100FB11402C218DF8F1
:1028E00000100A21B0FBF1F130318DF801100A21FE
:1028F000B0FBF1F201FB120030308DF80200002035
:102900008DF803006A4600210B20FFF7BAFDA720CF
:102910008DF808002E208DF8090000208DF80A009F
:1029200002AA00210E20FFF7ACFD07A8DFF8E01394
:10293000142203F073FA07AA01210020FFF7A1FD7A
:102940000CB010BD10B58AB00C0080B2B0F57A7F23
:1029500001DB40F2E73080B2642190FBF1F13031CD
:102960008DF800109DF80010302902D120218DF83B
:10297000001080B2642190FBF1F201FB12010A22E7
:1029800091FBF2F130318DF801109DF801103029E2
:1029900006D19DF80010202902D120218DF80110C8
:1029A00080B20A2190FBF1F201FB120030308DF869
:1029B000020000208DF803006A4600210020FFF786
:1029C00060FD02A8DFF84C13D1E90023C0E9002321
:1029D00002AA00210320FFF754FDA4B2B4F57A7FC8
:1029E00001DB40F2E734A4B2642094FBF0F0303015
:1029F0008DF800009DF80000302802D120208DF8CD
:102A00000000A4B2642094FBF0F100FB11400A2105
:102A100090FBF1F030308DF801002E208DF802008F
:102A2000A4B20A2094FBF0F100FB114030308DF885
:102A3000030000208DF804006A4600210920FFF7FA
:102A400020FDA7208DF800002E208DF80100002029
:102A50008DF802006A4600210E20FFF712FD04A83F
:102A6000DFF8B412142203F0D9F904AA01210020DE
:102A7000FFF707FD0AB010BD48452000F0B58FB044
:102A800004000E0015001F0009A8DFF890121422A0
:102A900003F0C4F904A8DFF88812142203F0BEF989
:102AA000FFB2002F05D004AA00210020FFF7E9FCA7
:102AB00004E009AA00210020FFF7E3FCB6F57A7FC5
:102AC00001D340F2E736642E2ED36420B6FBF0F03B
:102AD00030308DF800009DF80000302802D1202011
:102AE0008DF800006420B6FBF0F100FB11600A21B4
:102AF000B0FBF1F030308DF801009DF80100302876
:102B000006D19DF80000202802D120208DF8010078
:102B10002C208DF802000A20B6FBF0F100FB1160BA
:102B200030308DF8030013E020208DF800000A20DB
:102B3000B6FBF0F030308DF801002C208DF802004B
:102B40000A20B6FBF0F100FB116030308DF8030075
:102B500000208DF804006A4600210920FFF791FC4F
:102B6000A7208DF800002E208DF8010000208DF8A0
:102B700002006A4600210D20FFF783FCB4F57A7F3E
:102B800001D340F2E734642C2ED36420B4FBF0F080
:102B900030308DF800009DF80000302802D1202050
:102BA0008DF800006420B4FBF0F100FB11400A2115
:102BB000B0FBF1F030308DF801009DF801003028B5
:102BC00006D19DF80000202802D120208DF80100B8
:102BD0002C208DF802000A20B4FBF0F100FB11401C
:102BE00030308DF8030013E020208DF800000A201B
:102BF000B4FBF0F030308DF801002C208DF802008D
:102C00000A20B4FBF0F100FB114030308DF80300D6
:102C100000208DF804006A4601210020FFF731FCF6
:102C200020208DF80000A7208DF801002E208DF8BF
:102C300002002D208DF8030000208DF804006A4664
:102C400001210420FFF71DFC6420B5FBF0F03030BB
:102C50008DF800009DF80000302802D120208DF86A
:102C600000009DF80000302802D120208DF80000DF
:102C70006420B5FBF0F100FB11500A21B0FBF1F02C
:102C800030308DF801009DF80100302806D19DF804
:102C90000000202802D120208DF801000A20B5FB79
:102CA000F0F100FB115030308DF8020000208DF85B
:102CB00003006A4601210820FFF7E3FB02A8DFF8C2
:102CC0006410D1E90023C0E9002302AA01210B20EE
:102CD000FFF7D7FB0FB0F0BD6C1100206085000836
:102CE000748500080010014000080140908600082B
:102CF000888500089486000868860008AE310008C0
:102D00009C850008B0850008A08601009F86010010
:102D1000C485000870860008D8850008EC85000886
:102D20000086000878860008002840F10980F446F3
:102D3000404200F005F850F000406047002800BF16
:102D40000AD0B0FA80F18840D1F19D01C905020690
:102D500072F1004241EB102070470268531C03607F
:102D6000117070475FF0FF0C1CEAD05114BF614531
:102D700006E0C110400721F0E04101F160517047C9
:102D800079B900F0004100020AD0B0FA80FC00FAE4
:102D90000CF001F16051A1EB0C5101EBD021400589
:102DA000704741020CBF40F4E0016FF000010020C9
:102DB00070470102B0B581EA030C0CF0004C40F200
:102DC000FF7515EA11541DBF15EA1357AC42AF4207
:102DD00039E0E41923EA455343F48013C90241F072
:102DE000004141EA505EC7021100A7FB0202002821
:102DF0004FF00000EEFB01204FF00001E3FB072144
:102E000018BF42F00102401800214941E3FB0E01C6
:102E1000A4F580640F0302D252004041494154F1AD
:102E200001046CDD470872F1004250F1000051EBE3
:102E30000451A1F580115CBF41EA0C01B0BD4CEA20
:102E400005510020B0BD05EA1357AC4214BFAF4294
:102E500041E050EA410E1CBF52EA430E02E06146D7
:102E60000020B0BD24423C441BD15FEA070EF6D0DF
:102E7000090302BF01460020AEF1140EB1FA81F73A
:102E8000AEEB070401FA07FE0C37C7F1200100FA88
:102E900007F7C8404EEA000E23EA455343F4801377
:102EA000A2E733F00043B3FA83F704BFB2FA82FE1D
:102EB00077440B3FE41BB7F1200E2FBF02FA0EF34D
:102EC000BB40C7F1200E22FA0EFE38BF43EA0E03C4
:102ED000BA40641C82E750EA410E14BF52EA430E26
:102EE0006FF000014FF4001717EB430F8ABF19462C
:102EF00017EB410FB5E74CEA05510020B0BDD4F106
:102F00000104B4F120070FDAC4F12007520828BFEA
:102F100042F0010210FA07F501FA07F7E1BF2A4370
:102F2000E0403843E1400FE0352C98DCC7F1200445
:102F300052EA400220FA07F218BF42F0010231FAC9
:102F400007F0A1400A43002172F1004250F1000055
:102F500051EB0C01B0BD01022DE9F04140F2FF75CB
:102F600081EA030C0CF0004C15EA11541DBF15EA60
:102F70001357AC42AF42E9E0BC41C1F31301C3F3C4
:102F80001303801A994143F4801304D2641E400055
:102F9000494180185941C90241EA5051B1FBF3F649
:102FA00003FB1611A2FB0675D7EBC020A94102D284
:102FB000761E80185941C90241EA5051B1FBF3FE17
:102FC00003FB1E11A2FB0E75D7EBC020A94103D253
:102FD000AEF1010E80185941890241EA90517605FF
:102FE00046EA8E2EB1FBF3F603FB1611A2FB067523
:102FF000D7EB8020A94102D2761E80185941C90220
:1030000041EA50514EEA060EB1FBF3F603FB1611EE
:10301000A2FB0675D7EBC020A94102D2761E80180C
:103020005941C90241EA5051B1FBF3F703FB1711B3
:10303000A2FB0735D3EBC020A94167F100070CBF05
:10304000004247F0010766F3D5274FEA1E31B80862
:1030500014F5806414DDBD0775F1004250EB0E508D
:1030600051EB045111F5801F5CBF41EA0C01BDE832
:10307000F0814CF07F6141F0E0410020BDE8F0813B
:10308000BD076D0840EA0E5041F48011D4F10104EF
:10309000B4F120060ADAC4F120060200E04001FA89
:1030A00006F3E1401843B24015430EE0342C14DC23
:1030B000C6F1200445EA40056D0820FA06F21543E2
:1030C00021FA06F0A1400D43002175F1004250F1B4
:1030D000000051EB0C01BDE8F08100205FEA0C011B
:1030E000BDE8F081CFB992185B41B3FA83F704BF12
:1030F000B2FA82F6BF190B3FB7F120062FBF02FAD2
:1031000006F3BB40C7F1200622FA06F638BF334368
:10311000BA401CB1E419641E2FE77F4231F0004130
:10312000B1FA81F404BFB0FA80F6A4190B3CB4F1F3
:1031300020062FBF00FA06F1A140C4F1200620FAB4
:1031400006F638BF3143A0403C1B16E7AC421ABF1D
:1031500005EA1357AF4214E050EA41061CBF52EA99
:103160004306BFE750EA4107304661461CBF41EACB
:103170000551BDE8F08152EA430C08BFC143BDE8E8
:10318000F08100204FF4001616EB410F98BF16EBAC
:10319000430F08BF16EB410F24BFC14305E016EBF8
:1031A000430F0CBF61464CEA0551BDE8F081AE000B
:1031B000F446400D40EAC120490006D200F014F860
:1031C000004248BF6FF00040604700F00DF84FF03C
:1031D000004188428CBF084640426047400D40EAAB
:1031E000C120490080F00D8040F00040490DA1F55C
:1031F0008061491C05D4D1F11F0154BFC840C017DC
:1032000070474FF00000704740000DD2010E7F392B
:103210000AD4D1F11F0104D4C00140F00040C840DD
:1032200070477FF0000070470020704710B5040021
:10323000002094F82400012801D1022065E001203B
:1032400084F82400200002F060F9C0B2002858D1B0
:10325000A16ADFF8BC24114051F48051A1622168B9
:10326000DFF8B024914209D1DFF8AC14096811F4F9
:10327000702F01D1012102E0002100E0012100298D
:1032800004D0A16A31F48011A16203E0A16A51F473
:103290008011A162A16AC90501D40021E162002167
:1032A00084F824107FF004012268116021684968C5
:1032B000490529D42168896811F4E041B1F5E04F4E
:1032C00018D12168DFF84C24914209D1DFF8481465
:1032D000096811F4702F01D1012102E0002100E002
:1032E0000121002906D02168896851F40211226861
:1032F000916009E02168896851F400412268916079
:1033000002E0002184F82410C0B210BD10B5040002
:10331000002094F82400012801D102201FE00120A0
:1033200084F82400A06AC00510D4206840684005D5
:103330000CD4200002F02AF9C0B200280BD1A16AF7
:1033400031F4885151F00101A16204E0A06A50F00B
:103350002000A0620120002184F82410C0B210BD1A
:10336000F8B504000D0000200090002702F082FD57
:1033700006002068806B10F4401F16D1206800689A
:1033800040076DD415F1010FF8D0002D04D002F0E4
:1033900071FD801B8542F1D2A06A50F00400A0624A
:1033A000002084F82400032083E0022001F03EFE88
:1033B00021680969DFF86423114215D12168C968C1
:1033C000DFF85C2311420FD121680969DFF854232B
:1033D000114207D12168C968DFF84C23114201D19D
:1033E00014211CE029211AE021680969DFF834233F
:1033F000114205D12168C968DFF82C2311420BD096
:1034000021680969DFF82423114207D12168C968BE
:10341000DFF81823114201D1542100E0FC21DFF82C
:10342000EC221268B2FBF0F001FB00F702E000981A
:10343000401C00900098B84212D215F1010FF6D04E
:10344000002D04D002F016FD801B8542EFD2A06A49
:1034500050F00400A062002084F82400032028E03B
:103460007FF00E0021680860A06A50F40050A0624E
:103470002068806810F4E040B0F5E04F0DD020687F
:103480004068400514D42068806810F46020B0F5CE
:10349000602F0DD1E06800280AD1A06A30F4805076
:1034A000A062A06AC00503D4A06A50F00100A06227
:1034B0000020F2BD002202290AD00CD3042901D039
:1034C00003D308E00068826C07E00068426C04E007
:1034D0000068026C01E00068C26B1000704778B4AD
:1034E0000A000021002300938368002B90F8243009
:1034F000012B01D1022006E1012380F824308368EA
:10350000002B12D15368012B09D103689B6B9B0DD3
:103510009B05146853EAC4330468A36335E0816AE9
:1035200051F02001816201212FE013695468A34208
:103530001CD303689B6B1F2415695668751BED1C13
:1035400005267543AC4054F44014A3431469641E2B
:1035500053EA0453146815695668751BED1C05265B
:103560007543AC4023430468A3630EE003689B6B80
:103570001F2415695668751BED1C05267543AC4064
:1035800054F44014A3430468A36303689B68DB07F7
:1035900007D403689B68664C2340D46923430468BE
:1035A000A3609369012B0FD1D369B3F5E04F06D126
:1035B00003685B6853F480630468636004E0816AB5
:1035C00051F02001816201215369012B0ED19369D1
:1035D000002B06D103685B6853F480530468636072
:1035E00004E0816A51F020018162012113680A2BF5
:1035F00012D30368DB68072415680A3D0326754368
:10360000AC40A343946815680A3D03267543AC405B
:1036100023430468E3600FE003681B69072415680F
:1036200003267543AC40A34394681568032675438D
:10363000AC402343046823611368102B02D0136845
:10364000112B05D103689B6853F400030468A36041
:103650005368012B04D01ED3032B13D009D31AE0D7
:1036600003685B691B0B1B03D46823430468636115
:1036700019E003689B691B0B1B03D4682343046890
:10368000A36110E00368DB691B0B1B03D4682343B1
:103690000468E36107E003681B6A1B0B1B03D46823
:1036A0002343046823621368102B02D01368112B84
:1036B00024D103681F4CA3421BD103689B681B02E3
:1036C0001CD403689B6853F400030468A360126869
:1036D000102A13D10D4A1268174BB2FBF3F20A23DA
:1036E0005A430092009A002A08D0009A521E009273
:1036F000F8E7816A51F0200181620121002280F8FF
:1037000024200800C0B272BC704700000C000020EA
:10371000FEDFFFFF002801400424014024499224D9
:10372000244992009224491292244900499224008B
:10373000FE8FFFFF0024014040420F00F0B44FF025
:10374000004591EA030F44BF6B4000F0C1B800BFD1
:10375000841A71EB030604D26E40001BB1411219AA
:1037600073414FF4001C1CEB410F34BF7CEB43064C
:1037700084E00C0DA4EB1356362E7DDC012E43DCC9
:1037800045EAC32343EA525312BFD20292025B08B6
:10379000240545EAC12141EA5051D2EBC0209941AC
:1037A00025D407D1B0FA80F610FA06F164D00020D3
:1037B000203608E0B1FA81F6B140C6F1200220FAC5
:1037C00002F21143B0404FEAF474B4EB465434F0C3
:1037D00001064FEA74040AD8D6F50016760D04F0F7
:1037E0000044F04061FA06F25040F1404840C00AFF
:1037F00040EA415021F0004128BF5FEA500550F1F6
:10380000000044EBD12137E045EAC323DB0A45EA57
:10381000C121C90AB6F120050EDD42EA0242120CAE
:10382000C5F1200603FA06F6EB4042EA06056D42B2
:10383000984161F100010DE062FA06F5F240554051
:1038400063FA06FC82EA0C02F3405A406D42904152
:1038500061EB030111F4801F05D1641E620502D0E3
:103860006D004041494121F48011430875F1004346
:1038700050F1000041EB0451F0BC70471CEB410FCC
:1038800015D223F0004352EA43060BD04FEA4C0C0A
:10389000BCEB410F04D80C0D661E342EB7DDEBE7F0
:1038A000801A994150EA410608BF0021E4E708BFA9
:1038B0001CEB430F28BF6FF00001DDE7F0B44FF0C1
:1038C000004591EA030C44BF6B40FFF741BF00BFC6
:1038D000841A71EB030603D2001BB1411219734124
:1038E0004FF4001C1CEB410F34BF7CEB430443E05E
:1038F0000C0DA4EB1356352E50DC45EAC323DB0A2E
:1039000045EAC121C912B6F120050DDD63FA05F6BD
:10391000EB4086EA0305124218BF45F00105C018C6
:1039200051F100010CD213E062FA06F5F240554065
:10393000F3415A40B340F3405A408018594107D3ED
:1039400049085FEA30005FEA350528BF45F0010508
:1039500001F58011420875F1004250F1000041EB81
:103960000451F0BC4FF4001C1CEB410F38BF7047F2
:103970000020090D090570471CEB410F10D252EAD7
:1039800043060BD0BCEB410F05D80C0DAB43661EB4
:10399000342EB5DD02E0AB4380185941F0BC7047CE
:1039A000F0BC704780B50D48006850F010000B491E
:1039B0000860032001F026FC002002F061FA02F00A
:1039C00073FA002002BD06490968016005490968CB
:1039D000416005490968816070470000002002408D
:1039E000E8F7FF1FECF7FF1FF0F7FF1F10B504000B
:1039F000002C01D1012014E094F83D00002805D1ED
:103A0000002084F83C00200002F024FB022084F80F
:103A10003D00211D206800F05AF9012084F83D0086
:103A2000002010BD0168C96851F001010268D16031
:103A30000168096851F001010068016000207047C9
:103A400010B504002068006980071AD52068C06896
:103A5000800716D57FF002002168086101202077D9
:103A60002068806910F0030F03D0200002F0A6FB4D
:103A700005E0200002F0A3FB200002F0A1FB0020E3
:103A800020772068006940071AD52068C068400781
:103A900016D57FF004002168086102202077206895
:103AA000806910F4407F03D0200002F087FB05E01E
:103AB000200002F084FB200002F082FB002020772F
:103AC0002068006900071AD52068C068000716D56D
:103AD0007FF0080021680861042020772068C06911
:103AE00010F0030F03D0200002F068FB05E0200077
:103AF00002F065FB200002F063FB002020772068C5
:103B00000069C0061AD52068C068C00616D57FF0C7
:103B1000100021680861082020772068C06910F42F
:103B2000407F03D0200002F049FB05E0200002F0B6
:103B300046FB200002F044FB00202077206800694B
:103B4000C0070AD52068C068C00706D57FF001000D
:103B500021680861200002F034FB2068006900063B
:103B60000AD52068C068000606D57FF0800021686D
:103B70000861200002F026FB2068006940060AD593
:103B80002068C068400606D57FF0400021680861C3
:103B9000200002F018FB2068006980060AD5206822
:103BA000C068800606D57FF02000216808612000EB
:103BB00002F00AFB10BD10B50400002094F83C0090
:103BC000012801D1022081E0012084F83C0002207C
:103BD00084F83D002068806830F0770030F47F4042
:103BE000226890600868002855D0102858D02028F6
:103BF0005BD030285ED0402843D050282DD060289C
:103C000035D070280DD0B0F5805F03D0B0F5005FDF
:103C100016D054E020688068C008C0002168886021
:103C20004DE0CB684A688968206800F0BCF82068DD
:103C3000806830F0770050F07700216888603EE0BF
:103C4000CB684A688968206800F0ADF82068806811
:103C500050F480402168886031E0CA684968206873
:103C600000F06EF85021206800F093F827E0CA6851
:103C70004968206800F078F86021206800F089F831
:103C80001DE0CA684968206800F05AF840212068A1
:103C900000F07FF813E00021206800F07AF80EE0D1
:103CA0001021206800F075F809E02021206800F05C
:103CB00070F804E03021206800F06BF8FFE7012085
:103CC00084F83D00002084F83C00002010BD002254
:103CD0000268184B984208D0B0F1804F05D0164BBF
:103CE000984202D0154B984203D132F070024B68D3
:103CF0001A43104B984208D0B0F1804F05D00E4BBC
:103D0000984202D00D4B984203D132F44072CB68F6
:103D10001A4332F080024B691A4302608A68C26219
:103D20000A688262034A904201D109690163012154
:103D300041617047002C0140000400400008004031
:103D400010B400230024046A036A5B085B0003626A
:103D5000836933F0F00353EA021334F00A040C438E
:103D60008361046210BC704710B400230024036A0E
:103D700033F0100303628369046A33F4704353EA37
:103D8000023334F0A00454EA01148361046210BCCD
:103D900070470022826832F0700289B251F0070148
:103DA0000A438260704710B40024846834F47F446E
:103DB000114351EA03210C43846010BC704700009A
:103DC00080B500F00BFB002801D000F05BFC01BDCA
:103DD000DFF8CC080078DFF8CC180978884208D3DF
:103DE000DFF8BC080078DFF8BC180978401AC0B2C8
:103DF00008E0DFF8B00800784042DFF8A41809783E
:103E00000818C0B27047C0B2002809D13020DFF8CE
:103E1000981808700A20DFF890184870022044E0D3
:103E2000C0B201280DD12D20DFF87C180870312098
:103E3000DFF8741848700A20DFF86C1888700320C7
:103E400033E0C0B202280DD12D20DFF85C180870D5
:103E50003220DFF8541848700A20DFF84C188870B8
:103E6000032022E0C0B203280DD12D20DFF838183E
:103E700008703320DFF8301848700A20DFF828185F
:103E80008870032011E0C0B204280DD12D20DFF886
:103E9000181808703420DFF8101848700A20DFF86E
:103EA00008188870032000E0002070473EB5040029
:103EB00000255B20ADB260556D1CDFF8F00702688D
:103EC000EDA1280080B2204402F080F945192C2091
:103ED000ADB260556D1CDFF8D4074268E6A128003A
:103EE00080B2204402F072F945192C20ADB2605521
:103EF0006D1CDFF8B8078268DFA1280080B220447B
:103F000002F064F945192C20ADB260556D1CDFF844
:103F10009C07C268D8A1280080B2204402F056F95C
:103F200045192C20ADB260556D1CDFF88007026981
:103F3000D1A1280080B2204402F048F945192C2074
:103F4000ADB260556D1CDFF86807006800F05EFCDC
:103F50000200C9A1280080B2204402F037F94519B7
:103F60002C20ADB260556D1CDFF848070278C2A165
:103F7000280080B2204402F029F945192C20ADB266
:103F800060556D1CDFF830070278BBA1280080B2B5
:103F9000204402F01BF945192C20ADB260556D1C70
:103FA000DFF818070268B4A1280080B2204402F0AC
:103FB0000DF945192C20ADB260556D1CDFF8FC06DB
:103FC0004268ADA1280080B2204402F0FFF84519F4
:103FD0002C20ADB260556D1CDFF8E006806800F063
:103FE00015FC0200A4A1280080B2204402F0EEF8E3
:103FF00045192C20ADB260556D1CDFF8C40602785F
:104000009DA1280080B2204402F0E0F845192C2040
:10401000ADB260556D1CDFF8A806827896A1280025
:1040200080B2204402F0D2F845192C20ADB2605580
:104030006D1CDFF88C0682688FA1280080B22044B6
:1040400002F0C4F845192C20ADB260556D1CDFF8A4
:104050007006C27D88A1280080B2204402F0B6F824
:1040600045192C20ADB260556D1CDFF85406027E58
:1040700081A1280080B2204402F0A8F845192C2024
:10408000ADB260556D1CDFF83806427E7AA128007B
:1040900080B2204402F09AF845192C20ADB2605548
:1040A0006D1CDFF81C06027D73A1280080B220443D
:1040B00002F08CF845192C20ADB260556D1CDFF86C
:1040C0000006427D6CA1280080B2204402F07EF8F8
:1040D00045192C20ADB260556D1CDFF8E405827DDA
:1040E00065A1280080B2204402F070F845192C2008
:1040F000ADB260556D1CDFF8C805827E5EA1280058
:1041000080B2204402F062F845192C20ADB260550F
:104110006D1CDFF8AC05C27E57A1280080B2204498
:1041200002F054F845192C20ADB260556D1CDFF833
:104130009005427C50A1280080B2204402F046F84D
:1041400045192C20ADB260556D1CDFF87405027F57
:1041500049A1280080B2204402F038F845192C20EB
:10416000ADB260556D1CDFF85805828942A1280068
:1041700080B2204402F02AF845192C20ADB26055D7
:104180006D1CDFF83C05027C3BA1280080B2204476
:1041900002F01CF845192C20ADB260556D1C0122AF
:1041A000D2B235A1280080B2204402F00FF84519A0
:1041B0002C20ADB260556D1C6846FFF704FC222030
:1041C000ADB260556D1C009ADFF8F814280080B27B
:1041D000204401F0FBFF4519019ADFF8EC14280098
:1041E00080B2204401F0F2FF4519029ADFF8D8149A
:1041F000280080B2204401F0E9FF45192220ADB229
:1042000060556D1C2C20ADB260556D1CDFF8B004FC
:10421000C28919A1280080B2204401F0D7FF4519B6
:104220002C20ADB260556D1CDFF8A004026812A10D
:10423000280080B2204401F0C9FF45195D20ADB2CD
:1042400060556D1C0A20ADB260556D1C280080B20F
:104250003EBD10B50400DFF864048068FEF7D4FFAB
:10426000020005A1200001F0B1FF0A2180B2215413
:10427000401C80B210BD00002564000080B50A22F9
:10428000694601F0BDFFFEF74FFDFEF76BFD002212
:10429000DFF83C34FEF760FE00F070FADFF810142F
:1042A00008600098401C00900A226946009801F0BE
:1042B000A7FFDFF8001408700098401C00900A2245
:1042C0000021009801F09CFFDFF8EC13087001BD9D
:1042D00080B50A22694601F093FFDFF8F8134860C1
:1042E0000098401C00900A226946009801F088FF5F
:1042F000DFF8E013C8600098401C00900A2269466D
:10430000009801F07DFFDFF8CC1348610098401C55
:1043100000900A226946009801F072FFDFF8B4139A
:10432000C8610098401C00900A226946009801F07C
:1043300067FFDFF8A01348620098401C00900A2233
:104340006946009801F05CFFDFF88813C8620098A6
:10435000401C00900A226946009801F051FFDFF8E6
:10436000741348630098401C00900A226946009824
:1043700001F046FFDFF85C13C8630098401C009012
:104380000A220021009801F03BFFDFF8481348643F
:1043900001BD70B504000A220021200001F030FFA9
:1043A0000500C6484068FEF7C9FC06002800FEF775
:1043B000BBFC310001F028FFFEF726FFBF49486033
:1043C0000A220021200001F01BFFFEF7ADFCBB49D3
:1043D000896801F019FFB949886070BDBE48808DB9
:1043E000BD49C98D401A401EBC49C0B2095C0A29AA
:1043F00009D1AB4909780200D2B2914203D0A84951
:104400000870012000E00020704780B5B348B24931
:104410008862A548B04908624FF48072AF49AE483F
:1044200001F06EFA01BD38B50400002501F02EFF41
:10443000A94801F09AFA4FF48072A849A64801F001
:104440005FFAA748007867281FD1FFF7C1FC03284F
:1044500003DB0320FFF7D7FC4519FFF7B9FC02285F
:1044600003DA0220FFF7CFFC4519FFF7B1FC022861
:1044700007D10020FFF7C7FC4519A01CFFF716FD68
:104480004519EDB2280080B2FBE09548007863281A
:1044900040F0E38092484078732806D10020FFF76F
:1044A000B2FC45198F48FFF7E9FE8D484078662831
:1044B00006D10020FFF7A7FC45198A48FFF708FF3F
:1044C00087484078772817D1FFF782FC042803DB60
:1044D0000320FFF798FC4519FFF77AFC032803DA5D
:1044E0000220FFF790FC4519FFF772FC032803D167
:1044F0000020FFF788FC451979484078722817D1C9
:10450000FFF766FC042803DB0320FFF77CFC45195A
:10451000FFF75EFC032803DA0220FFF774FC45195D
:10452000FFF756FC032803D10020FFF76CFC451968
:104530006B4840786E281AD1FFF74AFC042803DB49
:104540000320FFF760FC4519FFF742FC032803DA5C
:104550000220FFF758FC4519FFF73AFC032806D163
:104560000020FFF750FC45190220554908705C48AF
:10457000407869281BD152480078022813D10020C6
:10458000FFF741FC451900224FF480715648FDF7B2
:1045900049FE00224FF400715348FDF743FE00200E
:1045A0004749087403E00420FFF72DFC45194C48E7
:1045B00040786A2812D10020FFF725FC4519012216
:1045C0004FF480714848FDF72DFE01224FF4007131
:1045D0004548FDF727FE01203949087440484078D6
:1045E0006D282ED1FFF7F4FB042803DB0320FFF72F
:1045F0000AFC4519FFF7ECFB032803DA0220FFF75A
:1046000002FC4519FFF7E4FB03281AD12000FFF74D
:1046100020FE451902202A490870FCF719F927489D
:104620000068264949680C1824488068FEF7ECFDAC
:10463000201A2249086000202049486000201F49B4
:10464000886027484078742803D10020FFF7DBFBFF
:104650004519EDB2280080B213E0214800786D289A
:104660000AD10020FFF7CFFB45192048FFF791FE44
:10467000EDB2280080B204E00120FFF7C4FB451929
:10468000002032BD80B50848FFF7CDFE020092B28F
:104690000549114801F00BF901F014FE01BD0000BD
:1046A000DF11002016010020180B002060100020F0
:1046B000080000201201002013010020B01000208B
:1046C0002C10002080860008888600080400002046
:1046D00000005940700E00203C0F0020180C0020F4
:1046E000180D00201A0D002000140140190D0020A3
:1046F00038B50400002C01D1012020E04CF6CC405C
:104700002168086045F2555021680860606821689A
:104710004860A0682168886001F0ACFB0500206853
:10472000C068002806D001F0A5FB401B3128F6D355
:10473000032004E04AF6AA2021680860002032BD68
:104740004AF6AA210068016000207047010040F18C
:104750000980F446404200F005F851F000416047FE
:10476000010000BF09D0B0FA80F18840C91CC1F532
:104770008461090501EBD021400570474FEAF17CC7
:10478000BCF1E04C2CBFBCF5001F11E05FEA4C0C03
:1047900034BFBCF17F5F2EE05FEA9C0C4FEA0C1C3B
:1047A0004FEA3C0CC10071F100414CEB5070704776
:1047B000C90241EA5051C00218BF41F0010141F065
:1047C00000414FEA6C50C0F10900212810D240EAA4
:1047D000CC7CCCF1200C11FA0CF070F10040CCF143
:1047E000200C21FA0CF00CF0004C40EB0C00704750
:1047F0004FEACC707047490011F5001F04D84FEA0A
:10480000CC10FF30C0057047C81770474100090E33
:104810007F3915D4D1F11F0114D4400007D2C00153
:1048200040F00040C84048BF6FF000407047C001F2
:1048300040F00040C8404CBF4FF00040404270473D
:104840000020704700424FF0004058BFC0437047FF
:1048500070B582B0040000252078C00740F1848044
:10486000DFF87C06006810F00C0004280BD0DFF89D
:104870007006006810F00C0008280ED1DFF8600602
:104880000068C00309D5DFF85C06006880036BD5BB
:104890006068002868D1012002E26068B0F5803FBE
:1048A00008D1DFF84006006850F48030DFF8341695
:1048B000086038E06068002810D1DFF8280600683A
:1048C00030F48030DFF81C160860DFF81806006846
:1048D00030F48020DFF80C16086024E06068B0F542
:1048E000A02F10D1DFF8FC05006850F48020DFF81D
:1048F000F4150860DFF8EC05006850F48030DFF84C
:10490000E41508600FE0DFF8DC05006830F4803063
:10491000DFF8D0150860DFF8CC05006830F480209F
:10492000DFF8C0150860606800280ED001F0A2FA18
:104930000500DFF8B0050068800315D401F09AFA8D
:10494000401B6528F5D30320AAE101F093FA050086
:10495000DFF890050068800306D501F08BFA401B54
:104960006528F5D303209BE12078800726D5DFF862
:104970007005006810F00C0F0BD0DFF864050068BC
:1049800010F00C00082833D1DFF854050068C0038C
:104990002ED4DFF850050068800704D5206901286F
:1049A00001D001207CE1DFF83C05006830F0F80020
:1049B000616950EAC100DFF82C1508602078000713
:1049C0004ED5A069002800F081800120DFF8201575
:1049D000086001F04FFA0500DFF81805006880074D
:1049E0003BD401F047FA401B0328F5D3032057E1DD
:1049F000206900281ED00120DFF8FC14086001F0B7
:104A000039FA0500DFF8DC040068800706D401F0FD
:104A100031FA401B0328F5D3032041E1DFF8C40439
:104A2000006830F0F800616950EAC100DFF8B414A2
:104A30000860C3E70020DFF8C014086001F01AFA2C
:104A40000500DFF8A00400688007B7D501F012FA6E
:104A5000401B0328F5D3032022E1012000F02DFAAA
:104A60002078400740F1B9800026DFF89004006804
:104A7000C0000FD4DFF88404006850F08050DFF8E5
:104A80007C140860DFF87404006810F08050009017
:104A900000980126DFF868040068C00529D4DFF813
:104AA0006004006850F48070DFF85414086001F06E
:104AB000E1F90500DFF848040068C00519D401F0E9
:104AC000D9F9401B6528F5D30320E9E00020DFF881
:104AD0002014086001F0CEF90500DFF81804006822
:104AE0008007BDD501F0C6F9401B0328F5D303208C
:104AF000D6E0E068012808D1DFF80804006850F02B
:104B00000100DFF80014086037E0E068002810D1E9
:104B1000DFF8F003006840084000DFF8E8130860A1
:104B2000DFF8E003006830F00400DFF8D813086015
:104B300023E0E068052810D1DFF8C803006850F0D2
:104B40000400DFF8C0130860DFF8B803006850F015
:104B50000100DFF8B01308600FE0DFF8A803006879
:104B600040084000DFF89C130860DFF898030068F5
:104B700030F00400DFF88C130860E068002810D0E3
:104B800001F078F90500DFF87C030068800719D48C
:104B900001F070F9401B41F289318842F3D30320C0
:104BA0007EE001F067F90500DFF858030068800730
:104BB00008D501F05FF9401B41F289318842F3D3F7
:104BC00003206DE0F6B2012E07D1DFF83003006854
:104BD00030F08050DFF824130860E06900285ED0D0
:104BE000DFF8FC02006810F00C00082855D0E069DE
:104BF00002283FD10020DFF81013086001F03AF9D5
:104C00000500DFF8E0020068800106D501F032F906
:104C1000401B0328F5D3032042E0206AB0F5803F13
:104C200009D1DFF8BC02006830F40030A168084305
:104C3000DFF8AC120860DFF8A802006830F47410E6
:104C4000216A0843616A0843DFF894120860012072
:104C5000DFF8B412086001F00DF90500DFF88402F6
:104C6000006880011BD401F005F9401B0328F5D32F
:104C7000032015E00020DFF89012086001F0FAF838
:104C80000500DFF860020068800108D501F0F2F845
:104C9000401B0328F5D3032002E0012000E00020A0
:104CA00076BD70B504000D000026DFF860020068D4
:104CB00010F00700A84211D2DFF850020068C008C7
:104CC000C0002843DFF844120860DFF840020068A3
:104CD00010F00700A84201D00120A1E02078800751
:104CE00009D5DFF8FC01006830F0F000A168084346
:104CF000DFF8EC1108602078C00756D560680128FD
:104D000006D1DFF8E0010068800311D4012087E0BC
:104D10006068022806D1DFF8CC010068800107D462
:104D200001207DE06F480068800701D4012077E012
:104D30006B48006880088000616808436849086023
:104D400001F098F80600606801280ED164480068F8
:104D500010F00C00042828D001F08CF8801B41F2E0
:104D600089318842F2D303205AE0606802280ED1CC
:104D70005B48006810F00C00082816D001F07AF8A3
:104D8000801B41F289318842F2D3032048E0544825
:104D9000006810F00C0F08D001F06CF8801B41F295
:104DA00089318842F3D303203AE05848006810F074
:104DB000070085420ED255480068C008C00028434D
:104DC000524908605148006810F00700A84201D01D
:104DD000012025E02078400707D54148006830F4DD
:104DE000E060E16808433E4908602078000708D584
:104DF0003B48006830F46050216950EAC1003849EE
:104E0000086000F00EF84249354A1268C2F30312F6
:104E1000895CC84035490860002001F031F8002065
:104E200070BD00B585B001A83A49102200F0F6FF28
:104E300039480088ADF80000002000200020002143
:104E400000202748006810F00C01042902D008292E
:104E500002D016E0244815E001A9C0F38342895C22
:104E6000C0030AD568461E4A1268C2F34042805CFD
:104E70001D4AB2FBF0F0484302E0284800FB01F075
:104E800000E0194805B000BD18480068704780B5BB
:104E9000FFF7FAFF2249124A1268C2F30222895C24
:104EA000C84002BD80B5FFF7EFFF1D490C4A1268EC
:104EB000C2F3C222895CC84002BD81B00B490968B7
:104EC000C9084FF47A72B1FBF2F14843009000BF79
:104ED0000098411E00910028F9D101B070470000F0
:104EE000041002400010024000127A000C00002062
:104EF0008004424224100240000042421C10024042
:104F00000070004020100240600042420020024039
:104F10003486000814860008B22D000800093D0000
:104F20006086000870B582B004000026002020785A
:104F3000C00763D5002576480068C0000CD47448CB
:104F4000006850F08050724908607148006810F0A5
:104F500080500090009801256E480068C00513D469
:104F60006C48006850F480706A49086000F082FF65
:104F7000060068480068C00506D400F07BFF801B6F
:104F80006528F6D3032050E06348006810F44070B1
:104F9000002822D0616811F4407188421DD05E481B
:104FA000006830F4407001215C4A116000215B4AC6
:104FB000116059490860C0070FD500F05BFF06007B
:104FC00055480068800708D400F054FF801B41F268
:104FD00089318842F4D3032027E04F48006830F439
:104FE0004070616808434C490860EDB2012D05D15D
:104FF0004748006830F080504549086020788007B5
:1050000007D54748006830F44040A1680843444948
:1050100008602078C00607D54148006830F4800059
:10502000E16808433E490860002076BD10B586B0AF
:10503000040001A83B49102200F0F0FE3A48008825
:10504000ADF8000000200021002300220020012CE8
:105050002BD0022C4ED0102C57D1314A1268334B32
:105060001B68DB0120D501A8C2F38343C35CD003D6
:105070000DD568462A4C2468C4F34044005DD20331
:1050800008D52B49B1FBF0F003FB00F102E0294801
:1050900000FB03F122480068400201D5080003E04C
:1050A00048000321B0FBF1F02FE01B48026840F2FA
:1050B00002301040B0F5817F02D14FF4004018E07B
:1050C00012F44070B0F5007F06D11B4800688007DD
:1050D00002D549F640400CE012F44070B0F5407F34
:1050E00006D112480068800302D54FF2244000E048
:1050F00000200AE0FFF7D6FE09490968C1F38131B3
:10510000491C4900B0FBF1F0FFE706B010BD0000FC
:105110001C10024000700040201002404004424237
:105120000410024024860008562F00080010024098
:1051300000127A0000093D002410024010F007011F
:10514000474800684FF6FF021040464A52EA0121E4
:10515000084343490860704741480068C0F3022093
:105160007047012110F01F0291403F4A40B24009B0
:1051700042F82010704740B2002808D509013B4A88
:1051800040B210F00F00104400F8041C03E00901C5
:10519000374A40B21154704710B410F00700D0F1F4
:1051A0000703052B01D3042301E0D0F10703041DFD
:1051B000072C01D2002000E0C01E012414FA03F3E2
:1051C0005B1E19408140012313FA00F0401E10407D
:1051D000084310BC704780B5411EB1F1807F01D3F8
:1051E00001200EE0401E234908600F215FF0FF30D0
:1051F000FFF7C1FF00202049086007201F49086011
:10520000002002BD80B5FFF799FF01BD70B5040015
:105210000D0016000020FFF79FFF32002900FFF766
:10522000BBFF0100200040B2FFF7A5FF70BD80B5B5
:1052300040B2FFF796FF01BD80B5FFF7CCFF02BD7E
:10524000042806D10D48006850F004000B4908609E
:1052500005E00A48006830F004000849086070471B
:105260000CED00E00000FA0500E100E018ED00E0C0
:1052700000E400E014E000E018E000E010E000E0EE
:1052800080B500F001F801BD70470000F8B50400DA
:105290000020002700250026002C01D101208FE0EE
:1052A000A068002801D060690028A06A002807D102
:1052B0000020E062002084F82400200000F042FE7C
:1052C000200000F063F9A16AC90673D4C0B20028B7
:1052D00070D1A16A31F4885151F00201A162616874
:1052E000E2691143E26851EA42010D43A168B1F558
:1052F000807F02D0A168012902D14FF4807100E0C3
:1053000000210F436169012911D1E168002906D10B
:10531000A169491E490351F400610F4307E0A16AE6
:1053200051F02001A162E16A51F00101E1622168BE
:10533000496831F4694139432268516021688968BC
:10534000DFF834221140294322689160A168B1F549
:10535000807F02D0A168012902D14FF4807100E062
:105360000021B1F5807F02D12169491E0E05216817
:10537000C96A31F4700131432268D16221688968B9
:10538000DFF8F8211140A94208D10021E162A16AA9
:1053900031F0020151F00101A16210E0A06A30F089
:1053A000020050F01000A062E06A50F00100E062DC
:1053B000012004E0A06A50F01000A0620120C0B2F9
:1053C000F2BD78B40A0000210023009390F8243045
:1053D000012B01D1022096E0012380F8243053688C
:1053E000072B12D203685B6B1F2455686D1E0526C0
:1053F0007543AC40A343146855686D1E052675437C
:10540000AC4023430468636327E053680D2B12D23A
:1054100003681B6B1F245568ED1F05267543AC40C0
:10542000A34314685568ED1F05267543AC4023431C
:105430000468236311E00368DB6A1F2455680D3D8F
:1054400005267543AC40A343146855680D3D0526F9
:105450007543AC4023430468E36213680A2B12D3FC
:105460000368DB68072415680A3D03267543AC40D2
:10547000A343946815680A3D03267543AC40234353
:105480000468E3600FE003681B69072415680326BE
:105490007543AC40A3439468156803267543AC403C
:1054A0002343046823611368102B02D01368112B67
:1054B00024D10368324CA3421BD103689B681B02B2
:1054C0001CD403689B6853F400030468A36012684B
:1054D000102A13D12B4A12682B4BB2FBF3F20A238A
:1054E0005A430092009A002A08D0009A521E009255
:1054F000F8E7816A51F0200181620121002280F8E1
:1055000024200800C0B272BC704738B504000025E2
:105510000020009020688068C0072BD42068806835
:1055200050F0010021688860164800681649B0FBF9
:10553000F1F0009002E00098401E009000980028D2
:10554000F9D100F097FC050020688068C00711D4ED
:1055500000F090FC401B0328F6D3A06A50F0100026
:10556000A062E06A50F00100E062002084F82400AC
:10557000012000E0002032BDFDF7E1FFFE0E1FFF1D
:10558000002401400C00002040420F0038B5040008
:10559000002520688068C0071BD520688068400807
:1055A00040002168886000F065FC05002068806884
:1055B000C0070ED500F05EFC401B0328F6D3A06A9E
:1055C00050F01000A062E06A50F00100E06201209B
:1055D00000E0002032BD0000F8B5040000250027DF
:1055E0000026002C01D101209FE094F83C00002807
:1055F00005D1002084F83D00200000F0C4FC02200A
:1056000084F83C002068006830F0020021680860DF
:105610002068006850F001002168086000F02AFC52
:10562000070020684068C0070CD400F023FCC01BB2
:105630000B28F6D3032084F83C00002084F83D00BA
:10564000032072E020684068C00761D5A069012886
:1056500002D156F0800601E036F08006E0690128AC
:1056600002D156F0400601E036F04006206A0128DB
:1056700002D156F0200601E036F02006606A0128CB
:1056800002D156F0100601E036F01006A06A01289B
:1056900002D156F0080601E036F00806E06A01285B
:1056A00002D156F0040601E036F0040620680068D6
:1056B00030F0FC00304321680860A068E1680843CE
:1056C00021690843616908436168491E08432168EC
:1056D000C86120680068400840002168086000F048
:1056E000C9FB070020684068C0070CD500F0C2FB6A
:1056F000C01B0B28F6D3032084F83C00002084F85C
:105700003D00032011E020684068C00700D4012557
:10571000012D06D100202064012084F83C000020E7
:1057200003E0042084F83C000120F2BD10B5040021
:10573000002C01D101200AE06079002804D100206A
:105740002071200000F049FC01206071002010BD94
:1057500010B50400002C01D101203DE00020A06222
:1057600094F85100002802D1200000F049FC0220EA
:1057700084F851002068006830F04000216808601B
:105780006068A1680843E1680843216908436169CA
:105790000843A16911F400710843E1690843216AD3
:1057A0000843A16A084321680860A069000C10F052
:1057B0000400616A084321684860E06A2168086162
:1057C0002068C06930F400602168C861002060650D
:1057D000012084F85100002010BD000090F83C200A
:1057E000012A01D1022024E0012280F83C2002227B
:1057F00080F83D200268526832F0700203685A60F7
:10580000026852680B681A4303685A60026892681B
:1058100032F0800203689A60026892684968114316
:1058200002689160012180F83D10002180F83C1051
:10583000002070470000000010B50400002C01D1CA
:10584000012033E0A0690028FFD194F83900002836
:1058500005D1002084F83800200000F015FC242039
:1058600084F839002068C06830F400502168C860AE
:10587000200000F0EEF92068006930F490402168C3
:1058800008612068406930F02A002168486120687A
:10589000C06850F400502168C8600020E0632020F8
:1058A00084F83900202084F83A00002010BD90F8D8
:1058B0003930202B22D1002902D092B2002A01D106
:1058C00001201CE090F83830012B01D1022016E0B5
:1058D000012380F8383001628284C2840021C163D0
:1058E000212180F83910002180F838100168C9683A
:1058F00051F080010068C160002000E00220704784
:1059000090F83A30202B2ED1002902D092B2002AF2
:1059100001D1012028E090F83830012B01D102207C
:1059200022E0012380F8383081628285C28500211F
:10593000C163222180F83A10002180F838100168F4
:10594000C96851F480710268D1600168496951F0F9
:105950000101026851610168C96851F020010068C5
:10596000C160002000E00220704710B504002068EC
:10597000C06830F490702168C860206840694008B1
:105980004000216848612068406940060ED52068C3
:10599000406930F0400021684861606B002805D004
:1059A0000020616B4863606B00F0A2FC0020E08582
:1059B000202084F83A00002010BD38B5040020688B
:1059C00000682168C968226852690023002310F02A
:1059D0000F03002B07D1850605D58D0603D52000C2
:1059E00000F0E3F882E0002B70D0D30702D411F46A
:1059F000907F6BD010F00103DBB2002B05D0CB05FC
:105A000003D5E36B53F00103E363430708D512F0BA
:105A10000103DBB2002B03D0E36B53F00203E3631B
:105A2000830708D512F00103DBB2002B03D0E36B30
:105A300053F00403E363030708D512F00102D2B266
:105A4000002A03D0E26B52F00802E263E26B002A04
:105A50003BD0800604D5880602D5200000F0A5F8CA
:105A600020684069800910F00103E06B000701D451
:105A7000002B25D0200000F03AF82068406940064D
:105A80001AD52068406930F0400021684861606B99
:105A900000280DD00FF27900616B4863606B00F055
:105AA00042FC002811D0606B616B496B88470CE0A9
:105AB000200000F09DFC08E0200000F099FC04E0CC
:105AC000200000F095FC0020E0630FE0020605D501
:105AD0000A0603D5200000F025F807E0400605D5AA
